:100000006F708059130000001300000013000000FF
:100010001300000013000000130000001300000094
:100020001300000013000000130000001300000084
:08003000130000007300100032
:100038000000000000000000A8020000AC02000060
:1000480000000000DE740000000000000000000056
:10005800E0740000E27400000000000000000000EE
:10006800E474000000000000E674000000000000D6
:10007800E8740000EA740000EC740000EE740000FC
:10008800F0740000F2740000F4740000F6740000CC
:10009800F8740000FA740000FC740000FE7400009C
:1000A8000075000002750000047500000675000068
:1000B800087500000A7500000C7500000E75000038
:1000C800107500001275000014750000426F0000E2
:1000D800187500001A7500001C7500001E750000D8
:1000E8005C60000030630000247500002675000085
:1000F800287500002A7500002C7500002E75000078
:100108003075000032750000DA55000036750000C1
:10011800A62B00003A7500003C7500003E750000F3
:1001280040750000427500004475000046750000E7
:10013800487500004A7500004C7500004E750000B7
:100148005075000052750000547500005675000087
:10015800587500005A7500005C7500005E75000057
:100168006075000062750000647500006675000027
:10017800687500006A7500006C7500006E750000F7
:1001880070750000D20700007475000076750000D5
:10019800787500007A7500007C7500007E75000097
:1001A8008075000082750000847500008675000067
:1001B800887500008A7500008C7500008E75000037
:1001C8009075000092750000947500009675000007
:1001D8000000000000000000000000000000000017
:1001E8000000000000000000000000000000000007
:0801F8000000000000000000FF
:100200003D432A876373C3029377F700BDEFADE5E3
:10021000937606FF3D8ABA960CC34CC30CC74CC7F5
:100220004107E36BD7FE11E28280B306C3408A0622
:100230009702000096966780A6002307B700A306E2
:10024000B7002306B700A305B7002305B700A30432
:10025000B7002304B700A303B7002303B700A3022A
:10026000B7002302B700A301B7002301B700A30022
:10027000B7002300B700828093F5F50F93968500B1
:10028000D58D93960501D58D61B79396270097027A
:10029000000096968682E78086FA9680C1171D8FA9
:1002A0003E96E374C3F8A5B77300203001A03971FE
:1002B00026DA8545AA843705020006DE22DC02CA5A
:1002C00002CC02CE02D002D202D402D602C602C8AA
:1002D000EF10C0131165854513054504EF1020117B
:1002E0009147231AF100371401408D473ECC4C084A
:1002F000E147130504803ECEEF00704EA147231A5C
:10030000F1004C089147130504803ECE374400406D
:10031000EF00F04CB7070C000C10130504403ED45E
:1003200026D002D223160102EF10C02E05469305F7
:10033000505213050440EF10203D9307601323161D
:10034000F10085472307F100680085473EC8EF00AC
:10035000B066130504408545EF104039F2506254F1
:10036000D25421618280054582803971094506DEBB
:1003700022DC26DA4AD84ED652D456D25AD05ECE95
:1003800062CCEF001063EF00702585451145EF103A
:100390000006371401408947130504803EC44C0011
:1003A000C14785443EC623129100EF005043854566
:1003B0001145EF10C003930700102312F100E1472D
:1003C0004C00130504803EC68D473EC4EF0030410B
:1003D0001145EF108005716513050520C93D2924DD
:1003E00005455126B7E700E03707200023A4E710B2
:1003F000EF005031EF104054EF503003EF60101712
:10040000EF60702723A401349387813423A207006F
:1004100023A4070023A6070023A80700B72700206E
:1004200083C787BF238E0130C18B99C3238E913040
:1004300099699384C131938949461389413383C7AC
:10044000C1312389013223AE0130A388013223A4B4
:100450000400238E0134238EF1309307400623AA33
:1004600001322385F400238C013023A2040023A64B
:10047000040023A80400239434012388013223229A
:100480000900232409002326090023280900EF502E
:100490000027EF108058EF509000EF106036EF20EB
:1004A000C05DEF301049EF30404EEF501075EF3027
:1004B0003022EF10E059EF40E077EF40C04041B705
:1004C000411122C4370400201304041B10403715C7
:1004D000014085451305058006C6EF00F03D1C4030
:1004E000B240FD17B337F0001CC0224441018280A6
:1004F000B71702409843B706FFF84111136717007A
:1005000098C3D84337060200758FD8C39843B706FF
:10051000F7FEFD16758F98C39843B706FCFFFD16CE
:10052000758F98C3D843B70681FFFD16758FD8C362
:100530009843B70600ECFD16758F98C33707FF0088
:1005400098C723A6070202C402C69843C166558F06
:1005500098C3B716024005679C42F18F3EC6A2477A
:1005600085073EC4B24781E7A247E397E7FEB71786
:1005700002409C431397E7006356070685473EC633
:1005800032478547631EF704B7170240D843B706C2
:10059000C1FFFD16D8C3D843D8C3D843136707405B
:1005A000D8C3D843758FD8C3D843C166558FD8C335
:1005B0009843B7060001558F98C398439316670078
:1005C000E3DD06FED843B7160240719BD8C3D8437B
:1005D00013672700D8C32147DC42B18BE39EE7FEB7
:1005E0004101828002C669BFB71702403707001178
:1005F000D8D7D857B70600C01305800C558FD8D769
:10060000D84B856693860680558FD8CB6F00A07F28
:10061000B737024037070700938707401D0798CB7D
:1006200023AA070023AC070013070004239CE70854
:1006300013070040239EE7082390E70A13070020D2
:100640002392E70A2394E70A2396E70A2398E70A06
:10065000239AE70A239CE70A239EE70A2390E70CE4
:100660002392E70C2394E70C2396E70C2398E70CDE
:10067000239AE70C13870157D8CF371700201307A9
:100680000716F8CF1387013698D3371700201307C2
:100690000736B8D31387015BD8D3239C070C0947CF
:1006A000238DE70CA38D070C93062002239E070CD5
:1006B00013070002238FD70CA38FE70C2390070E9C
:1006C0002381D70EA381E70E2392070E2383D70E33
:1006D000A383E70E2394070E2385D70EA385E70E89
:1006E0002396070E2387D70EA387E70E2398070EBE
:1006F0002389D70EA389E70E239A070E238BD70EE3
:10070000A38BE70E239C070E238DD70EA38DE70E38
:10071000239E070E238FD70EA38FE70E239007107B
:100720002381D710A381E710239207102383D710CA
:10073000A383E710239407102385D710A385E71020
:10074000239607102387D710A387E7102398071055
:100750002389D710A389E710239A0710238BD7107A
:10076000A38BE710828039C5411106C622C43734F5
:100770000240A30004404147A300E440230004409A
:10078000130790022300E440230104401307700282
:100790002301E4407D572328E4409D3D2945A525BC
:1007A0008347044093E707012300F440B24022440A
:1007B00041018280B737024003C707401377F70E25
:1007C0002380E74003C70740136767002380E740A3
:1007D0008280011122CE3734024026CC4ACA4EC84C
:1007E00052C656C4130404400347A4009387718380
:1007F0001377F70F2380E70003C70700098B630017
:10080000071C0347B4008347B4003D8B91838D8B55
:100810006315070E0947639BE70C83C7918019474F
:1008200093F7F70F6387E7025D476384E702154795
:100830006398E70A83C70183A301040093F7F70FC6
:10084000A301F400231C040C230D040CA30D040CC1
:1008500085A89387418383D707001307F003938408
:100860004183130400046366F70003D404004204C8
:10087000418003A901562286CA8513850157EFA03E
:10088000906883D70400229923A02157818FC20743
:10089000C1832390F4009387818003C70700134727
:1008A00017002380E70037370240231C874C83C79B
:1008B000070093F7F70F93B717008E07230DF74C38
:1008C000B737024009472385E740938707407244C2
:1008D000E2445249C249324AA24A056173002030BB
:1008E000A147A30DF40C23A00156D9BFF1FB231C93
:1008F000040CA147230DF40CE1B785466317D70418
:10090000E1F3B71500209385051613850136A13C48
:1009100042054181231EA40C8347E40D93F7C70FC2
:10092000230FF40C8347E40D93F7F70F230FF40C18
:100930008347F40D93F7C70FA30FF40C8347F40D0F
:1009400093F7F70FA30FF40CA5BF8946E31AD7F668
:10095000A5FB0357C400B7160020420741839386C6
:1009600006361386015B93950701C18163EFE502AB
:10097000B73702402390E74E03C7274E1377C70FC0
:100980002381E74E03C7274E1377F70F2381E74EE6
:1009900003C7374E1377C70FA381E74E03C7374E00
:1009A0001377F70FA381E74E21BF3385C7000345B7
:1009B0000500B385D70085072380A5006DB703C761
:1009C0000700137707026303073C13870157835619
:1009D0006700938741832390D70003C9015783475A
:1009E0001700138691802300F600937509069386FD
:1009F00091801384418393870157F1C19377090450
:100A0000CDCF834706005D466316F6128356470036
:100A100091476397F608B70700209387470723A0FD
:100A2000F156930780020357040063F4E700231094
:100A3000F400835704001307F0039309000463676D
:100A4000F70083590400C20993D9090103AA01568A
:100A50004E8613850157D285D299EFA0D04A23A0A4
:100A6000315762091359894181476353090203577A
:100A700004009307000463E6E70083570400C207FD
:100A8000C183035704001D8F420741832310E400F4
:100A900037370240231CF74CA147230DF74C7DA0AC
:100AA00015468147E391C6F8B70700209387C70929
:100AB00023A0F1569307E008BDB78147ADB703C740
:100AC00006002D461377F70F6366E6062D660A07C4
:100AD0001306C67B32971843028783D7270039460F
:100AE00013D787007D17420741836365E6042D66AF
:100AF0000A071306C67E329718430287B7070020FD
:100B00009387070023A0F15683C7070029BFB16769
:100B10009387078723A0F1569307E00229B793F73D
:100B2000F70F09476383E7066367F702B9C3054711
:100B30006387E704FD572380F600B7370240239C04
:100B4000074C0D47238DE74CA38DE74CB737024088
:100B5000130700028DBB11476387E70463EEE702CA
:100B60001307E00EE398E7FCB70700209387C7124E
:100B70003DA09387818123A0F15691476DB593875E
:100B8000C18123A0F156994779BDB1679387478BFF
:100B900023A0F156E94741BDB1679387078D23A094
:100BA000F156C94749B5B1679387078A23A0F15623
:100BB000D14795BDB1679387478E23A0F156A947CA
:100BC0009DB59387A18003C7070005466312E6021F
:100BD000B7090020B165938949041306C0029385C3
:100BE000258413852900EFA0103223A031572DB79B
:100BF00083C7070093F7F70F95FFB7090020B1658A
:100C0000938949011306C00293852587D9BFB1672F
:100C10009387878223A0F156D94731B503C72700B0
:100C20002388E1823DBD83C711832388F156035792
:100C300004008547E3F7E7E22310F4001DB503C77E
:100C40002700A388E18205472389E18219BD137734
:100C5000F90109466317C70403C64700B7370240C6
:100C60006309E602938707406368C7000547E313FB
:100C7000E6ECA38F070CF5B393051008630EB600DE
:100C800093052008E318B6EA2390070E2381E70EA8
:100C9000C9BB2381074EF1B3239E070C238FE70CBA
:100CA000C9B3E31907E803C727008547E31BF7DA51
:100CB0009387618303C707001377E70F2380E7005B
:100CC0004DB31376F9010947E316E6E603D727008B
:100CD000E31207E603C74700B7370240630DC702B8
:100CE00093870740636CE6000546E315C7E403C736
:100CF000F70D13673700A38FE70CA5B31306100891
:100D00006302C70213062008E316C7E203C7270ED3
:100D100013673700A5BF03C7374E13673700A3819A
:100D2000E74E81B303C7E70D1367370085BF2388FC
:100D30000156F5BD03D7470023980156B737024047
:100D40009306100893870740631FD70083C7E70DFA
:100D50008D8B0D476395E70085472388F156035730
:100D600004008947C1BD85466315D70083C7F70DC9
:100D7000C5B7930620086315D70083C7270EC9BFE0
:100D80008946E31ED7FC83C7370ED9B703C70700D0
:100D9000058B1DC39384018323800400EFF05F87DC
:100DA00083C70400A301040093F7F70FA301F40025
:100DB00085472305F40021BE83C70700918BE38894
:100DC00007B09387618303C707001377D70F23808A
:100DD000E70005472389E1829147E1BFB70700207B
:100DE00083A7471B37177A0013070720B3D7E702FB
:100DF00093F7F70F238DF1821307803EB387E70245
:100E0000239CF1828280B7F700E0D8438146799B2A
:100E1000D8C303C7A1833306A70290CBD4CB984392
:100E20001367070198C398431367170298C3D84301
:100E3000058B75DF9843799B98C38280B7F700E0F4
:100E4000D8438146799BD8C303D781833306A70251
:100E500090CBD4CB98431367070198C3984313678B
:100E6000170298C3D843058B75DF9843799B98C3C5
:100E700082805841032805004C45370601409307FE
:100E800006403E979346F8FFB1C583250640F58D91
:100E90002320B640D043F18ED4C31443B3E60601F9
:100EA00014C3184190479346F7FF758E90C7D047FB
:100EB000F18ED4C7144541466399C6009447D98E34
:100EC00094C7D447558FD8C78280B6979443558F1F
:100ED00098C382801C43F58F1CC38280B7070140F2
:100EE0001387074083A70740584B698F09C77D8D3B
:100EF0003335A000828001458280B707014023AAD4
:100F0000A7408280B707674537270240938737128B
:100F10005CC3B797EFCD9387B79A5CC382803727BE
:100F200002405C470545858B91E748474189133569
:100F300015000D058280411122C426C206C62A84EE
:100F40008544F13F6318950019E0154529A0C13F7C
:100F50007D14CDBF7DD8B2402244924441018280AD
:100F6000411126C2AA8437050B0006C622C4E13708
:100F700091476313F502372402401C4837050B00E4
:100F800093E727001CC844C81C4893E707041CC803
:100F90005D371C48F59B1CC8B24022449244410175
:100FA0008280011126CAAA8415652EC606CE22CCDF
:100FB00059379147B245631FF500372402401C485A
:100FC000156593E717001CC82390B400AD371C4883
:100FD000F99B1CC8F2406244D244056182809C4562
:100FE00013F7070113F8F70001C7D8413368E80089
:100FF00083D5050013F7F50F39C318418146854E97
:101000003D4F930F800293028004214E3396DE0001
:10101000B3F8C500631116039398260033131F011C
:101020001343F3FF3377E300B318180133E7E80005
:10103000639FF70550C98506E39AC6FD18C11307DB
:10104000F00F6375B70454412146854E3D4F930F11
:10105000800293028004414EB398CE0033F715010D
:101060006392E8021317260001173313EF001343AE
:10107000F3FFB376D3003317E800D98E639DF701F1
:10108000232A15010506E319C6FD54C18280E394A5
:1010900057FA10C94DB7E39757FE23281501DDB75E
:1010A0000845420541818280484542054181828050
:1010B0000CC982804CC9828019C20CC982804CC97B
:1010C0008280B707014063570504DC4F13570501C1
:1010D0009376F70013160501370730004182337805
:1010E000E500635C05046319E802138706018D4679
:1010F000B396E60093C6F6FFF58F89C913575501DD
:1011000012073317E600D98F6357050437070140EC
:101110005CCF8280DC435DBF1317B50063560700C8
:101120000D47B316D700F9B71357550112073317F8
:10113000E6001347F7FFF98FC9B76312E8023708D3
:10114000014083264800370700F17D17F98F758F1E
:101150002322E800C5F5370701405CC382801317DE
:10116000B500635C07000D473317D7001347F7FF3F
:101170007D8FB707000FD98FF1BF135755011207A5
:101180003317E600E5B713F7C50F93F73500B7053A
:101190000140BA9594458A073D473317F700134736
:1011A000F7FF758F98C598453315F500598D88C59B
:1011B000828023AEA18282809387C18394430347B8
:1011C000050089E683472500920731A89443054628
:1011D0006391C604834725000346150092076314F4
:1011E000D60093E707F8B7E600E093F7F70FBA9653
:1011F0002380F6408546935757003397E6005441C5
:10120000ADC6938707048A07B7E600E0B69798C390
:1012100082808C4389466393D502834615008347B9
:1012200025006365D6008A06B69779BF9386E603E4
:101230008A06B69793F7F70F920765B790438D46E6
:10124000631ED60083461500834725006364D600DD
:101250008606D9BF9386C6078606E1BF94439147A9
:10126000E39AF6F88347150085B79387070661BFB1
:10127000371702405C439146B18B6385D700A14686
:101280006386D706B7177A00938707201CC13716E5
:1012900002405C4237070020130707149183BD8B7F
:1012A000BA9783C607001C41B3D7D7005CC154422C
:1012B000A1829D8ABA9683C60600B3D6D70014C50C
:1012C0005442AD829D8A369703470700B3D7E700A3
:1012D0005CC558423983937637001387C1803697AF
:1012E00003470700B3D7E7021CC982805C43584319
:1012F000C166C983758FB7F6FF1F83A6C670BD8B05
:1013000089071396160163480600C5460146639295
:10131000D702C94739A88946638FD702BD46638E75
:10132000D702C146638ED702C54601466393D700F4
:10133000C1471DEF3747024003270780418B05C790
:1013400037177A0013070720B307F7021CC121D211
:101350001C41858325BF01466DBF0546B547D1BFFA
:101360000146BD47F9B737173D0013070790E9BF9E
:10137000B7150240D8559316F700D85563DF060419
:1013800011833D8B9306170037177A001307072048
:101390003357D70218C1D455A182BD8A8DE2954634
:1013A0003307D702058318C1371702405857144135
:1013B0003D8B050733D7E60218C1184171B7854543
:1013C0006394B600E546E9BFBD456396B600D146D5
:1013D0003387E602C9BF8906E5BF3D8B9306170038
:1013E00037177A00130707203357D702F1B799C58B
:1013F000371702401C4F5D8D08CF8280B71702401F
:10140000984F1345F5FF798D88CF828099C537179E
:1014100002405C4F5D8D48CF8280B7170240D84FA5
:101420001345F5FF798DC8CF8280B7170240A3839B
:10143000A70082808357050037370140930607C015
:10144000C207C1836300D504B7060040630CD50210
:10145000938606406308D502B716004013860680BF
:101460006302C502938606C0630ED50013070740CA
:10147000630AE50037570140930607C06304D500AF
:101480006317E50003D7250093F7F7F8D98F3717CF
:101490000040630DE500130707406309E50093F77B
:1014A000F7CF03D76500C207C183D98F2310F5009A
:1014B00083D745002316F50283D705002314F502D0
:1014C000B7370140138707C0630EE50093870740D5
:1014D000630AF500B7570140138707C06304E500AE
:1014E0006316F50083C785002318F5028547231A84
:1014F000F50082808357050203D6050003D8250036
:10150000C207C183F99BC207C1832310F502835729
:1015100005028356450003578501C207C183420770
:1015200041831377C7F8518F03D68500F59BC20618
:1015300033660601D18F37360140130806C0C182D9
:10154000630E050113060640630AC50037560140C5
:10155000130806C0630405016313C50203D6A50082
:10156000DD9B03D8E500D18F03D64500ED9B93F6B4
:10157000F6CFD18F03D6C50033660601D18E231274
:10158000D500231CE50003D76500231AE5022310CC
:10159000F5028280FD572312F50023100500231366
:1015A00005002311050023040500828083570500F0
:1015B00091C593E717002310F5008280C207C1830D
:1015C000F99BC207C183C5BF8357450491C52167F5
:1015D000D98F2312F5048280C607C583DDBF8357E8
:1015E000C50009C6DD8D2316B500828093C5F5FFC1
:1015F000FD8DD5BF83578501C207C183DD9BDD8D7E
:10160000231CB500828093C5F5FFC205C181231854
:10161000B500828083560501F577FD17F58F83D6D7
:101620006500397122DC06DED58F03D7C50023188B
:10163000F5008356C500FD779387379FF58F83D6D6
:1016400045002A842EC6D58F83D68500D58F83D6B4
:10165000A500D58F2316F50083574501C207C18326
:1016600093F7F7CFD98F231AF50068081131B747E0
:10167000014093870780B245631EF404A257835646
:10168000C4006547B387E702C206C186984163D5A7
:10169000060406070356C4004206B3D7E702130741
:1016A00040064186B3D6E702B3F7E70292066357D6
:1016B00006028E0793872703B3D7E70213F7770055
:1016C000B367D700C207C1832314F400F2506254F9
:1016D00021618280925765B70A076DBF9207938791
:1016E0002703B3D7E702BD8BD58FE9BF81C98357E5
:1016F000C5000967D98F2316F50082800357C500FE
:10170000F977FD17F98FC5BF13F7F50F85471583D7
:10171000B395B7006319F7009307C500984301CE4E
:10172000D98D8CC38280894693074501E318D7FE83
:1017300093070501E5B793C5F5FFF98DDDB793F57F
:10174000F51F2312B5008280035545001375F51F60
:101750008280035505006D8D3335A000828013F71C
:10176000F50F85461583B397B6006313D702035769
:10177000C500F98F0357050001454207418381CB1E
:101780000545A181B315B5006D8F3335E00082802A
:1017900089466315D70003570501E1BF035745018B
:1017A000C9BF411126C2B72401401385048006C673
:1017B00022C4EFF07F8F35811374150013850480E8
:1017C000EFF09F8E9317350163D407001364240054
:1017D0002285B2402244924441018280411122C4B8
:1017E0003724014013050480896506C6EFF09F8CFD
:1017F000130504802244B240856541016FF09F8B40
:10180000011185451305000406CE22CC26CA4AC81C
:1018100037240140E93E89670D49C1444C00130556
:1018200004802312F1004AC426C6EFF04FFB854521
:10183000130500046D3E85674C00130504804AC4FF
:1018400026C62312F100EFF08FF9493FF2406244BF
:10185000D2444249056182801387C1310347170092
:1018600039E7411122C426C206C69384C1312A84B5
:1018700009E9AD37B2402244238604009244410175
:1018800082809377050481CB372501408965130554
:101890000580EFF0FF8162046184E35D04FC37257D
:1018A0000140856513050580EFF09F80E1B78280D8
:1018B00003C7C1318947630BF700011106CE2AC661
:1018C000EF3020173245F240056179B7828001116F
:1018D00037F5000806CE22CC26CA4AC84EC652C4E6
:1018E000EFF00FE891476311F504371400204169C8
:1018F000B7F40008130404567D19B709010883558D
:101900000400130A2400638525012685EFF06FE9A2
:1019100083550A0011046386250113852400EFF026
:101920004FE89104E39D34FDF2406244D2444249C1
:10193000B249224A05618280B71700209386075674
:1019400037F7000893850756370601080345070057
:1019500005078506A38FA6FEE31AC7FE03C7075631
:10196000A947630CF70081477D560567B386F500EC
:101970002380C6008507E39BE7FE8280B71700201F
:10198000938707563E95034505008280B7170020D0
:10199000938707563E952300B5008280B717002035
:1019A00001478146938707566317E6003295AA9749
:1019B0002380D70029BF054899E213D87600B38663
:1019C000E50083C80600B38608013308E5003E98A9
:1019D00093F6F60F230018010507F9B7B718002092
:1019E0000147814793880856B386E500C69603C829
:1019F00006006317E6003385074113351500828022
:101A0000854699E393D67700C29693F7F60FB3060F
:101A1000E500238006010507C1BF372500204111DD
:101A200081451306C0051305059606C6EFE04FFD78
:101A3000B7250020938505990145EF30F06F11E53A
:101A4000B2401D4541016F30600EB24041018280BD
:101A500037250020938581341305C5976F50005CAE
:101A600071715EC7B72B00205AC9130600052A8B77
:101A700081451385CB9B06D722D562C526D34AD193
:101A80004ECF52CD56CB66C36AC1EEDE1384CB9BDC
:101A9000EFE00FF7372C00202D4693050C96130529
:101AA0001400EF90504603070B0093074002630EAB
:101AB000F702A3050104014AB7C7000083A7879571
:101AC000B16D01493ECEB7071040938717403ED015
:101AD00093870D8F3ED4B7C7000083A7C79502D266
:101AE000814C8149814A3ED611A68547A300F40066
:101AF0008D4723010400A305F104054A75BF930433
:101B0000FDFB93F4F40FE54663F496006F00B06DAF
:101B10008507F0009305B1045A85A305F104EF1081
:101B2000101A19E16F00906CB646368536D8EF5022
:101B30007061EF900073937DF50F6E85EF90C07725
:101B4000C256AA853685EF90602FF245EF90C0050A
:101B5000EF50904F9316050113067004C182630B7A
:101B6000CD001306D004630BCD1CA2578A04BE948B
:101B700098400287130780026380ED1C636CB705F1
:101B80004D47636FB701454763F6ED14114763870F
:101B9000ED1063EDED022947638EED0ED14791A262
:101BA00071476389ED0E636CB7015547E368B7FF72
:101BB0005545B307B541A301F40019470DA2794774
:101BC000638AED0C13076002E39AEDFCE3930A626B
:101BD000894AB5A01307D003638CED146365B7057C
:101BE00013075003638CED0A6365B7031307B00254
:101BF0006386ED0013071003E392EDFAE39B0A5EA0
:101C000013071003639FED102303040021478D4A3F
:101C100055A81307B003E363B7F99387ADFCA3039B
:101C2000F40025476DA81307B0056365B7051307D2
:101C3000A00563F8ED0C13070005E391EDF6A30092
:101C4000B401130660020547639BCD089387C6FE67
:101C5000C207C1837946E363F6F40256B357F60030
:101C6000858B8DDFA947B3D6F6029386A6F8A3002D
:101C7000D40089A81307C005638EED001307E005A3
:101C8000E36EB7F11305E005B307B5412301F40096
:101C90001547B1A081E6E39E0A54854A238EBB9B7B
:101CA00013F7DD0F71466307C7001306C005014730
:101CB0006397CD0281C62947E392E6EE6E95238EA7
:101CC000AB9A01479257B3D7E740858B63870710DC
:101CD000D54701A89387FDFEA302F4000947FDD272
:101CE000DD47BA502A549A540A59FA496A4ADA4ADC
:101CF0004A4BBA4B2A4C9A4C0A4DF65D3E854D61D3
:101D0000828099E693876DFA2302F4000D475DBF48
:101D10002947E395E6E81307A005E381EDE81147BD
:101D200055B7A947E39CF6E685472303F400F9BDC0
:101D3000E39606E6294779B71D4755B7D5F27947A7
:101D4000E36EB7E50546B70600403317B6019D06BA
:101D5000F98E95E693760738A9EA13778703E30FA0
:101D600007E21147638AED021547638DED028D4648
:101D70003147E399DDF4C1472305F400A1B7638837
:101D80000D002D47E380CDF42304B40121A08D473D
:101D90002304F4002D473DB7930700022305F40008
:101DA00031470DB723050400E5BF2147638EED00E1
:101DB00025476381ED029D463547E395DDF09307A6
:101DC00000F8A304F400FDBD93070004A304F4008D
:101DD0003547CDBDA3040400E5BF85473397E70031
:101DE00092575D8F93170701C1833ED28347B10499
:101DF0003307FB00030D0700E3130DD063850900D3
:101E000063930A00894A9377090289CB1454379760
:101E1000980013070768ED47E345D7EC63030A1002
:101E200013771900D947E30E07EA034734008547C3
:101E3000639DE710B7C70000484483A50796EF806D
:101E4000B05648C419A2B64793E98900B5443CC4CA
:101E5000B3579940858BE395073A93071036B3D76C
:101E60009740858B81CB364593050000EF80104B62
:101E7000E34B05388547B394970033E924014209C1
:101E800013590901A5B7B64793E90901B9447CC4C0
:101E9000C1B7B64781445CC465BFB64793EC1C002C
:101EA00085441CC875B7B64793EC2C0089445CC8C0
:101EB00045B7B64793EC4C008D441CCC51BF230270
:101EC000B403914471B736459544EF90603308D41C
:101ED00041B7B64799445CD4A5BFB6479D441CD8CA
:101EE00085BFB647A1445CD8A5B7B2553645EF804B
:101EF000903AE343A030230CB403A54491BFB64706
:101F000093E91900A9445CDCA1B7B64793E929001D
:101F1000AD443CC035BFB64793E94900B1447CC0ED
:101F200005BF8347240005476392E7048947639E02
:101F3000FA0083471400130700056388E70091C780
:101F400013771900D947E30E07D89377091089E76B
:101F500093070C96DC475CD803C7CB9B9147631A69
:101F6000F702937709048DE3F147A5BB93070C961D
:101F700083C61700F9FA9376190081C683473400A7
:101F800045BD9C4B5CC4D1B71379F9FB4209135989
:101F900009018347540091CB0547638BE70A8947C2
:101FA0003ED002D485473ECE31A089473ED48547F6
:101FB0003ED002CE0347340085476300F70A8D47C1
:101FC000639CFA000347640085476317F7001147D5
:101FD00093075002E397E9D093050C9651469385F9
:101FE0000503E808EF902072925737270020130767
:101FF0000799B724002093F707203AD693840496D4
:10200000C1E703CBCB9B29476301EB0A1307C0054C
:10201000630EEB1E0D47639AEA2479476309EB00D0
:10202000130750036307EB2E71476319EB22B725A3
:10203000002071479385C59C19456303EB001D453E
:10204000EF30900F2DC16396092A014B814A31AAC6
:1020500085473ED402D08947B9B7B7C7000083ADE2
:102060000796228B8144154DB3D79940858B81CB40
:102070000325CB03EE85EF803033232EAB0285049E
:10208000110BE393A4FF25BF03457400994763F444
:10209000A700F547B9B183C76400E384A7F6EC084D
:1020A000EF30900939FD9D472DB963940900E94748
:1020B0000DB993770905E38907EA4854EF50900872
:1020C000EF90201A1375F50F9947E3E4A7FC034737
:1020D0004402D1476309F7008946E314D7C0137758
:1020E0000908E31007C01379F9FA420913590901E5
:1020F000630905107D15137BF50FB7250020938527
:10210000C59C5A85EF30500359DD8347440213873D
:10211000CB9B930D0C963ED8BC4C014D3EDA33D68A
:10212000A941058A0DCEC257D146505F639ED70C98
:1021300083A54D0403A5CD013ADE32DCEF801050BB
:102140006256B285EF80904F7257894708CB63186B
:10215000FD00D2553ADCEF80704E625708CC050D79
:1021600095471107910DE31CFDFA034D14009307E9
:1021700000056317FD1AFD47E39509B613771A00AA
:102180006303074A1379E9FD42091359090163877B
:102190000A00E1779387F73F3379F900930740020C
:1021A000E31109B482C882CA82CC630107489257FE
:1021B00013F767FBC147E31607B203C7CB9B93072F
:1021C00050036305F700C147E31D07B0DC4403C7B4
:1021D00084009385CB9BBECA83C794008808D98F9F
:1021E000230CF104EF009002AA87E31C05AE2ACE6F
:1021F00051469305C4031385C401EF90C050F247C4
:10220000CDB4034B7400D5BD10CB91BFE38109EA77
:10221000BC4C930D0C96228D3ED8014B33D66941B0
:10222000058A1DCEFC0813162B003E960C4203A512
:10223000CD01EF80B0408325CD03EF803040232EC9
:10224000AD0289476316FB00C255EF80303F68C07E
:10225000050B9547910D110DE312FBFC014B31B7B6
:1022600003A64D04232ECD02E5B7E38809DA8347A0
:10227000440013060C96938DCB9B3ED8BC4C014D6D
:102280003EDAB3D5A941858999E94C4E23AEBD020A
:10229000050D95471106910DE315FDFEBDBB930796
:1022A0005003E307FBFEC25703A8CD039DEBFC08D8
:1022B00013152D003E956C42084132DC42DEEF8062
:1022C00000167258C285EF80801523AEAD02894793
:1022D0006256E31FFDFAD255EF80601468C0625663
:1022E00045BF484EC28532DCEF80601323AEAD029D
:1022F000FDB7A68622878147954533D6F940058AE2
:1023000019E2D04E10CB850791061107E397B7FE6F
:10231000B1B7834614000547F947E371D7F4D1B24A
:102320008947E39DFAE463160D00E39909E4814AC5
:10233000B1B5484493050000EF802070D947E3020F
:10234000059A9307C0086309FD0263EBA701630EBA
:102350005D058D47630DFD048547E311FDE2F1B78F
:102360009307E008630AFD006366FD009307F00829
:10237000E316FDE0136A0A01130D2D07137DFD0F0F
:10238000854763E4A701136A8A00E38209D2B7256F
:1023900000203725002051469385859F1305C5975A
:1023A000EF900034E31C05DC59A0136A4A00E38077
:1023B00009D0F24705483317F8008257B317F800E1
:1023C0005D8FB3F6E9003AD893070002E38B0690DD
:1023D0007247F24793064700B1078A078A06A29719
:1023E000A696CC46C847EF807025025782572A8DA3
:1023F00093064700B1078A078A06A297A696C847A0
:10240000CC46EF80B02393770908AA8D4257054840
:10241000638B0712B725002037250020514693858E
:10242000859F1305C597EF90A02B054801E59307FD
:10243000100245B883473400639A0701B7C700000C
:10244000085883A50796EF80207608D8B7C7000004
:10245000832C040383A547966685EF80E074E685A8
:10246000EF808074AA8CEA856A85EF80E073AA8584
:102470006685EF80B01CAA8CEE856E85EF80C072F9
:10248000AA856685EF80901B93050000AA8CEF80DB
:10249000E06893072002E34605846685EF50C04D4F
:1024A000AA8CEE856A85EF10801CB7070080AA858C
:1024B00033C59701EF80402D834614000D47AA8C49
:1024C000B70700806394E600B3CCA7001C589305BF
:1024D00000003E853ED8EF80606463590500C25716
:1024E00037050080B34C95013D8D08D8F247EE8545
:1024F00066858A07A2973ED8EF80006BAA856A8519
:10250000EF80D01337C70000832587961379F9F73A
:102510004209EF806069C257EA851359090188CBE7
:10252000825766858A07A2973ED8EF80E067EE85DE
:10253000EF70F06E37C7000083258796EF80C06686
:10254000C25788CB25B93377970193073002630AC6
:1025500007F883473400137919FF42091359090119
:102560006387070982576E858A07A2978C4B3ED8EE
:10257000EF80D00CF247AA8D6A85939C2700A29C1D
:1025800083A50C01EF80900BEE85EF10400EC25733
:10259000AA8D03A50C018C4BEF10600DAA8508D8FD
:1025A0002A8D6E85EF809009B7C70000931C150037
:1025B00083A5C79693DC1C006685EF80C04DE35F62
:1025C000A0BAB7C7000083A587966685EF80A04CA8
:1025D000E34FA0E4B7C7000083A507976A85EF80A3
:1025E000A05CE685EF808053E35A05B889B5B7C68D
:1025F000000003A80696228781471546B3D6FC4003
:10260000858A89CE084BC2853EDC42DA3AD8EF8013
:10261000A0594257E257525808CB15468507110773
:10262000E39EC7FC81B71379E9CDB9BEB727002077
:1026300083C787BF898B95C3834714000947FD175C
:1026400093F7F70F6374F700136A0A04638009189D
:102650008947639DFA16136A0A081C549CCC834769
:102660002400A380F40081C7A147230CF1045C443B
:1026700083294403C8449CC8CE85BEC8EF80E03B94
:1026800013790A0401E593770A0295C303C5940000
:1026900009CD93178A01E18763C9070093050000FC
:1026A00063130900CE85EF3090065C58DCC46314D8
:1026B0000900DC44BECA834784030345A400238A7F
:1026C000F40083C794006389A700D645EF30300437
:1026D0008347A400A384F4008347810503C79400C3
:1026E00003459400D98F230CF10483C78400638AC7
:1026F000A700EFF0EF9B83479400639007102384BB
:1027000004008347810503C78400D98F03C7CB9B8F
:10271000230CF10491476315F7004854EF00503F34
:10272000834754002382F400834734002381F4005C
:102730008D476395FA0283476400A382F40081E722
:10274000930700007CC003294404A84CCA85EF808D
:10275000C02E09C523AC2405EF40900883477400C0
:1027600003C76400630BF70032555146EC0823831E
:10277000F400EF805079EF40B00683474400130720
:102780006002A381F40083C7CB9B6387E714636C6B
:10279000F7067147638BE70879476388E70829479D
:1027A0006392E70C372900209305C99C5A85EF20D6
:1027B000107983C764006397670B325551469305C0
:1027C000C99CEF805074EF40B00169A803C7940022
:1027D000C147E314F7E883470C96894613770A0448
:1027E000FD1793F7F70F63E7F600E30807E6136AB0
:1027F0000A02A5B5E31307E6DDBF03C78400D98F3E
:102800002384F400FDBD1307C005638FE70C130795
:1028100060066381E70E130780026395E704B7251E
:1028200000209385C5971D456DA88347810593E7D3
:102830001700230CF10463890A00372500208C0857
:102840001305859FEF00E06C372900208C081305E5
:10285000C99CEF00006C51469305C99C1385C401C7
:10286000EF80706A83471400130700052300FC966D
:102870006388E70209476395EA0205493725002086
:10288000639927098C081305859FEF008068B72599
:10289000002051469385859F1385C401EF80B06663
:1028A00083478400A383F400638D07C2EF20601880
:1028B00083C674000D476395E60C03C7C131894791
:1028C0006307F7002145EF40C07EEF10705DA383E2
:1028D000040081476FF0EFC0B72500209385C597AE
:1028E0001945EF20D065BDBF51469305C40313853C
:1028F0004404C1BDB727002023A2079A9387479AB3
:1029000023A2070023A4070023A6070023A807008B
:102910005DBD81EB8347810593E71700230CF1042C
:1029200095B7F91793F7F70F6369F902135A2A005D
:10293000A2580258F2471858137A1A00B7260020F6
:102940003726002052C09386C69C1306C6978C0873
:102950001305859FEF0040651DBF834781055286A3
:102960008C0893E747001305859F230CF104EF00C3
:10297000F020E30E05F0E31525F3EFF06F8D0DB7B2
:1029800005472310EC9619679386C1311307474614
:102990002394E600130740062385E60003C7C131F0
:1029A00023820400A38104002383040023940400F1
:1029B00089476306F702B7250020938505990145ED
:1029C000EF2090779D47630E05B0EF4060610145B1
:1029D00093050000EF30604B0145EFE0FFE7214534
:1029E000EF20A01AEDB585476FF0AFAF89476FF0C4
:1029F0004FAFE1476FF0EFAE930760026FF06FAE3D
:102A0000E5476FF00FAE91476FF0AFADDC45411178
:102A100022C44AC006C626C21CC1834785002A8933
:102A20001384C50393E747002304F500B72700206C
:102A300083C787BF93F707029DE32285CA85D12903
:102A400083C4C1318DE8EF00D07A15C59307000229
:102A5000238EF130EF301027EF30A04D31A02285CA
:102A6000EF40605FBD4471D9B240224426850249DF
:102A70009244410182808144C5BF39718545130567
:102A8000100206DE22DCEFE09F968D473ECC9307D6
:102A900080043ECE37150140E17793C707C04C084C
:102AA0001305054037240020231AF100130404B94C
:102AB000EFE0EFD283478406A18BB5CB1305400628
:102AC000EFE0CFB7A9450D45EFE0EFEBAD450D4584
:102AD000EFE06FEBB1450D45EFE0EFEAB5450D4591
:102AE000EFE06FEAB9450D45EFE0EFE9A1679387A5
:102AF00007C03ED08347840602D2214793F70704DC
:102B000091E33147054408103AD422D6EFE06FB67E
:102B1000930780232316F100680089472307F100FB
:102B200022C8EFE06FE9F250625421618280B7E77A
:102B300000E03707000123A2E718F5B7B7E700E088
:102B40003707000123A2E7188280371501404111A1
:102B50001305054006C6EFE0AFD437270020034732
:102B600087BFAA871377070419E72165130505C0F6
:102B7000A98FC207C183014585C73167130787D372
:102B8000814605489545035607007D8E11C63316CC
:102B9000D800518D1375F50F85060907E395B6FE2C
:102BA000B2404101828041111305004022C6EFE08E
:102BB000EFB209C513050040EFE02FB4056413051B
:102BC0000480EFE0AFB109C513050480EFE0EFB278
:102BD0000565EFE0AFB001C50565EFE00FB209652F
:102BE000EFE0CFAF01C50965EFE02FB11165EFE070
:102BF000EFAE01C51165EFE04FB0B7E700E0370772
:102C0000000123A2E72803C7C1318547630CF70001
:102C100083C7C13593F7F70F91E7EF00B00405457F
:102C2000EF40700332444101730020301971CAD85B
:102C300086DEA2DCA6DACED6D2D4D6D2DAD0DECEEA
:102C4000E2CCE6CAEAC8EEC69387C13183C7170053
:102C50006391071A994702D42304F102B7C7000011
:102C600083AC479737240020B164930A04B9130B4F
:102C700004B91389C131AA8902D002D29384C4D481
:102C8000930B4101014A930D0000130404B9154C44
:102C900083D704002390FB00B3D74941858B89CFAC
:102CA0000325CB03E685EF703070EE852A8DEF703B
:102CB000F06663430500EA8D050A8904890B110B50
:102CC000E3188AFDB7C7000083A78797032D040781
:102CD000114A8544154C3EC6938581346810EF40F7
:102CE000E0330353A406B705008001450146814B3C
:102CF000B3C5B501B3D7C940858BB1C393172600BF
:102D000013878134B388E70023A00800B358C34079
:102D10000505781093F818001375F50FBA976385B9
:102D2000080081C48CC321A0F5DC23A0B701931750
:102D300016005808BA9783D70700B3EBFB000506C7
:102D4000E31A86FBEF80A063EF401043AA852313AC
:102D500079016A85EF7050652AD00C106810EF0079
:102D6000906291472302F900EF30C075EF30601C8C
:102D70009DC4E13B5008814783560600B3F57601B8
:102D800089C9B355F540858989C593C6F6FFB3FB5C
:102D9000760185070906E39187FF23137901EF3058
:102DA000607283C7113393F747036383070E83C7AA
:102DB000113313FDF70F13770D0101C71945EF40CC
:102DC000806913770D0201C71D45EF40C068639FFE
:102DD000040CA53B3375350101C52145EF40A067C3
:102DE00083C7C13593F7F70F85C7EF00A067EF10D2
:102DF000300BF6506654D6544659B659265A965A50
:102E0000065BF64B664CD64C464DB64D096182804A
:102E10001145EF406062EF30405E0355440793CBAD
:102E20001400EFE0AF81B5E8B245285CEF70D057F1
:102E3000032DC406AA8D7D1A137AFA0FDE84E31DD2
:102E40000AE88144938B8134370B0080154AB3D74D
:102E50009940858B9DC78357A406285C03AC0A0064
:102E6000B3D79740858B9DCF83A5CA03EF70205BB6
:102E7000E285EF707053EF40301D93972400DE978A
:102E800088C38504910AE39444FD2302090095B7A1
:102E900093F7AB2AE39E07ECBDBF832D8407032D78
:102EA000040751BFE2853345AB00E1B793774D008E
:102EB00085DB254525B7411106C622C426C2EF4051
:102EC000801939C11387C1318546A301D70083C654
:102ED000C13121473E849384C131639DE600214581
:102EE000EF40201DEF10C07B83C7140091EF83C714
:102EF000C131EDFB852B0945EF40E0552244B2403E
:102F0000924441016F10C079B24022449244410181
:102F100082800111B727002022CC26CA4AC84EC69B
:102F200006CE138707B903478706AA892E89137728
:102F30000702938407B90DC703C7C1319307000285
:102F4000631FF7001384C131EF10807583471400AD
:102F500089EFEF00902F0DC1EF108026F5B7A13F4C
:102F600003C7C1318947E31FF7FCF2406244D244F2
:102F70004249B24905618280CA854E85EF00B04062
:102F80006DF583C78406898BEDD383478900C18B98
:102F9000E9DF624483254900F240D2444249B24904
:102FA000414505616F20B0765971CECE93992700C7
:102FB000B30736013ECEB3873601A2D43EC6804366
:102FC000B3073601A6D2AE848C43CAD02A892285A3
:102FD00086D6D2CCD6CA328ABA8ADEC6E2C4C28BC0
:102FE000468CE6C2EAC06EDE36C4DAC8EF70204313
:102FF000A2468A0BB3077A013ED0B387760183AC31
:1030000007003EC8B3077A018C432ACA6685EF7071
:103010000041CA99D2452ACC03A50900B707008010
:103020003D8CB3CC9701CA9BEF705061AA89E245F1
:1030300003A50B00034D0107EF705060AA8BCE85EE
:103040002285EF707036AA8DDE856685EF70D035EB
:10305000AA856E85EF70A03CDE85AA8D2285EF7073
:10306000B034CE85AA8B6685EF701034AA855E8554
:10307000EF70D05CEE85EF401010AA8963080D0A4E
:10308000EF80C03CB7C7000003A6879883A6C79807
:103090002A8DAE8DEF60902E634F0500B7C70000FC
:1030A00003A6079983A647996A85EE85EF6050438A
:1030B000EF808044AA89B727002083ABC7BED6859E
:1030C0005685EF70C035DE85EF705057DE85EF70A6
:1030D000B02DEF40700A37CD000083258D96AA8B66
:1030E0004E85EF70702CD685EF70102C0605DE85AE
:1030F0000581EF706069EF406068EF808016931A79
:10310000050193DA0A01639C0A042654B650F64975
:10311000664AD64A464BB64B264C964C064DF25D57
:10312000A6854A85965406596561E5B3EF8000325D
:10313000B7C7000003A6879983A6C7992A8DAE8DCD
:10314000EF60B02EE349A0F6B7C7000003A60799C9
:1031500083A647996A85EE85EF50105491BF83CBC3
:1031600084005685EF80401593F78B00AA8D91CB94
:10317000AA85884093FB7BFFEF70102388C02384CF
:103180007401EE854E85EF7020600A0CB3078A014A
:103190004A9C8C43AA8903250C003EC4054BEF7062
:1031A000F049EE85EF70405E2AD2CE854E85EF70F5
:1031B000B01FB7C70000AA8503A5C797EF701048D6
:1031C000B7C7000083A507982A8C4E85EF70D01DE5
:1031D000B7C7000083A54796AA8B6285EF702024AD
:1031E000AA855E85EF70501C83258D96AA8B62851B
:1031F000EF70901B9387C1312A8C014D3ED49317F9
:103200000B01C183E3F357F1AD4763EDA709DE85F9
:103210002285EF707019AA8DE2856685EF70D0184F
:10322000AA856E85EF70A01FAA8DE2852285EF70BA
:10323000B0172A84DE856685EF701017AA8522856F
:10324000EF70D03F050D2A84137DFD0FEE8CD24523
:103250002285050BEF70A01CF247E24588C3668506
:10326000EF70E01B8257925588C3A2478843EF70E6
:10327000001BA247A68588C35285EFF09FC9A257BD
:1032800083C71700ADDFB650265496540659F64949
:10329000664AD64A464BB64B264C964C064DF25DD6
:1032A000656182805A85EF802001CE85EF70D00F56
:1032B0002A84EF4080442A8D2285EF406060B24727
:1032C00037070080AA8D9C43EA85B98F42473E8527
:1032D0003ED6832C0700EF70300D2A84EE8566857C
:1032E000EF70900CAA852285EF706013B257EE85BF
:1032F0002A843E85EF70500BEA85AA8D6685EF70B3
:10330000B00AAA856E85EF707033AA8C014D81B723
:1033100003C7C1318947630CF700011106CE2AC6E5
:10332000EF1020713245F24081450561C5A48280CD
:10333000411106C6EFF09F801145EFF03F8F0D451C
:10334000EFF0DF8E6145EFF07F8EEF10603583C7C1
:10335000D13195E3EFE0CFEFEF0090372165130512
:1033600005C0EFD09FB9B7E700E03707000123A2FF
:10337000E72823A2E710B24041018280011126CA4A
:1033800003C7C13106CE22CC4AC84EC652C456C26B
:1033900089476307F70C32892E8AAA89EF10606982
:1033A0009387C13103C71700A68A9384C13119CB13
:1033B0000945F2406244D2444249B249224A924A03
:1033C00005618280135539000589A3820700EF004B
:1033D000B053EF00905911C91145EF40C007EF10ED
:1033E000202C0145EF005052E1B74E85D285EFF019
:1033F0005FB2854709452389F132EF30904BEF10DA
:10340000202A83C71400CDF783C7C131EDFB03C762
:10341000213385476393E704137609011DCA51469A
:103420009385813413854133EF80E02D0145238955
:103430000132EF00704DEF10A026EF20107CB12379
:10344000EF001029EF10B01C03C554003335A00065
:103450008DB71545EF402000D1BFA382F400F9B726
:10346000014581BF83C71133C18BA9EB4111414590
:1034700006C6EF301044EF203000EFE02FB603C750
:10348000C1319387C13183C747009376C702998BB7
:10349000D58F95C39147631CF70083C7C135194584
:1034A00093F7F70F91C7B24041016F2030320D45BD
:1034B000EF30707ACDBFB240410182808280797155
:1034C00006D622D426D24AD04ECE52CC56CA5AC89C
:1034D0005EC662C403C705009306D0022A978347DD
:1034E00007006399D7048347170093042700854991
:1034F00081480147014401482543130EE00FA14EC6
:10350000938707FD93F7F70F6368F30405071377B5
:10351000F70F63EDEE02638508007D146204618499
:1035200093162800C29686063388D700850483C781
:10353000F4FFF9B79306B002930417006396D7001F
:10354000834717009304270081495DB7E39008FE85
:10355000050462046184D9BF6396C70163940800BF
:103560008548E9B721CF2A8B42852E8AB28BEF702E
:103570001061930500002A89EF70204C15C1B7C770
:10358000000003ACC79AFD5A63475405631E5405F7
:10359000B7C7000083A5079B4A85EF70E0602A89C2
:1035A00063860900B707008033C92701B3846441EB
:1035B00023A02B01FD1423009A000547B25022548A
:1035C00092540259F249624AD24A424BB24B224CBF
:1035D0003A85456182804A85E2850904EF70C05CC6
:1035E00062042A8961844DB745DCB7C7000083AA0D
:1035F000479B4A85D685EF70205B7D149377F40F47
:10360000139487012A896184EDF759BF4111B7C727
:1036100000004AC02E8983A5479A06C622C426C246
:10362000EF708058EF402000EF70B0431314050195
:1036300041809384C13115C483C714009DE3631C8A
:103640000900EF10E0057D14130520034204EFD0BC
:10365000EFFE4180CDB7EF00503883C72400898B3F
:10366000FDD3B2402244924402494101828041117B
:1036700026C2AE84AA8506C622C4EF70E0522A8410
:10368000A6852685EF704052AA852285EF603059C5
:103690002244B240924441016F40002E011122CCDD
:1036A00026CA4AC84EC606CE52C42A84930945018A
:1036B000AA841309000003AA0400930500005285A0
:1036C000EF70A03711C9D2855285EF70E04DAA8501
:1036D0004A85EF60D0542A899104E39E34FD4A85DF
:1036E000EF408029B7C70000AA85AA8403A5079ADE
:1036F000EF7080092A890840CA851104EF70C04A1A
:10370000232EA4FEE31934FFF24062442685424989
:10371000D244B249224A056182800111B7C7000034
:1037200026CA83A4879A4AC83709008022CC52C48B
:1037300056C25AC006CE4EC6AA8A2E8B01441349E1
:10374000F9FF514AB3078B0083A9070093050000D6
:103750004E85EF70802E05C1B3878A008843CE85E1
:10376000EF708002B3792501A6854E85EF70A032F7
:103770006343A000CE841104E31644FDF24062448A
:1037800026854249D244B249224A924A024B0561F7
:10379000828039714ED626DA83C4018406DE22DCAB
:1037A0004AD852D456D25AD05ECE62CC66CA6AC8C3
:1037B0006EC69389018499E09304400283CA118400
:1037C000FD1493F4F40F138A118463839A0A13048B
:1037D000C0033384840237090020930709211309A9
:1037E00009213E944C50032B04022E85EF60304398
:1037F0000C54EF70603BAA852A845A85EF70003222
:1038000063430500228B9307C003B387F402268429
:10381000CA9723AE670199E0130440027D14137424
:10382000F40F138B218463948A0683470B006394FF
:103830005701EF20B045834A0A009304C003930761
:103840004002B3849A0213841A001374F40FCA94CA
:103850006313F400014403CC0900014B930BC00334
:10386000930C400263158C0A63040B0023005A0179
:10387000F2506254D2544259B259225A925A025BBF
:10388000F24B624CD24C424DB24D21618280930783
:10389000C003B384F402130CC003CA94B30B8403B3
:1038A000A28ACA9B19E01304400283470B007D14CF
:1038B0001374F40F63948700EF20503DB38A8A039A
:1038C000CA9A83AC0A0203A5CA01E685EF70E01626
:1038D00015C583A54A022E85EF60703483A58A0240
:1038E000EF70802CCC4CEF609033AA84AA8566855B
:1038F000EF70601A635AA00023AE9A0083470A0053
:10390000DE84E39D87F805BF23AE9A01C5BFB309E6
:10391000740383ADC4016E85CA9903ADC901EA85FC
:10392000EF70C01F63570502CC502E85EF60302F1B
:103930008C54EF706027EE85EF60702EAA84AA8504
:103940006A85EF7040156356A00023AE9900A28AE5
:10395000054BB3077403CA978C53C84FEF70E00D43
:1039600019E1A28A054B05041374F40F6313940143
:103970000144CE84C5BD2381018423800184054791
:10398000A381E184A3800184828041111306C002D7
:1039900081451385010D06C6EFC09F86B2404101E7
:1039A000D9BF83C6018403C621841387218463851C
:1039B000C6029307160093F7F70F9306400263932E
:1039C000D70081479386118483C506006394C500A0
:1039D0002380F6002300F700828083C7018413054B
:1039E000C003B387A70237050020130505213E95C4
:1039F000828083C7218403C701840145630BF700DC
:103A00001305C003B387A70237050020130505215E
:103A10003E95828083C7218413074002850793F770
:103A2000F70F6393E700814703C701841305000084
:103A3000630CF7009306C003B387D7023707002053
:103A400013070721BA97C84F828003C5218483C713
:103A500031841D8D133515008280411122C406C6A4
:103A600026C28347A501405913F7170029C303C590
:103A70005132EF707004B7C7000083A5C79AEF708A
:103A8000A012AA852285EF7020122A84B7C70000F1
:103A900083A4079A2285A685EF60F07F6343A00088
:103AA00026842285B2402244924441018280918B37
:103AB000AA8485E303C54132EF701000B7C7000048
:103AC00083A5C79AEF70400EAA852285EF70C00DBE
:103AD0002A848458A2852685EF704004E35805FAAD
:103AE00026846DB7797122D403C421845AC803CBCC
:103AF0000184B7C7000026D283A4879A4AD0370929
:103B0000002052CC5EC606D64ECE56CA130AC0035B
:103B100013090921930B4002631F8B00B2502254FA
:103B200023AC910E02599254F249624AD24A424B56
:103B3000B24B45618280330544034A95EFF0FFF1B3
:103B4000AA89AA852685EF60707D635B0502A6853C
:103B50002685B3044403EF702005CA9483AAC402E7
:103B600088D0D685EF6030736354A00023A054033F
:103B700005041374F40F631374010144CE8469BF08
:103B8000CE854E85F9B7357156C34AC903C901843C
:103B90004EC79309C003B309390322CD370400206F
:103BA00093070421DEDEEAD8AE8B1306C0032A8D0C
:103BB0008145BE994E8506CF26CB52C55AC1E2DC5F
:103BC000E6DAEED6EFC0CFE383C78B0003A74B0046
:103BD000938A0184238DF90023ACE902898B1304B5
:103BE000042151466384071C93858134130AC00362
:103BF000330A49034810EF701031372B002031672A
:103C0000130C0BB9930CC7D28144130B0BB9229A36
:103C1000B3079D00884383250C00EF60F078EF30F8
:103C2000B0421C08A69788C35C10A6979C431D8DC4
:103C30009356F541B3C7A600958FB38699009CC2F1
:103C4000832D4A0163F3FD00BE8D232ABA01EF7074
:103C5000A06683250C00EF6030333C18A69788C31C
:103C600093050000EF60906B6359050083578A014C
:103C700083D60C00D58F231CFA009104D147110C78
:103C8000890CE397F4F8014563830D109304C00396
:103C9000B30499022818EFF07FA0372C00202C18CD
:103CA000A29488D413058CBBEFF03FA7C8D037256A
:103CB00000202C18130545BAEFF03FA603CAA40153
:103CC00088D893771A006386070EC8D803C70A00FE
:103CD00083C721846306F700137A2A0063060A0E5D
:103CE0009307C003B307F90213070000A297D8CFC8
:103CF000D8D79307C003B307F9020545A29783C736
:103D0000A701898BC9E74E85EFF03FD59387010D59
:103D100003AB8702AA85AA895A85EF603060138AAF
:103D2000010D6354051ADA855A85EF60F067930731
:103D3000C0033309F9024A940329C40208D0CA8592
:103D4000EF6070556354A0002320240351462C18C3
:103D500013054A0123243A03EF70F01A51460C0868
:103D60001385010DEF70301A83C73184930640022A
:103D7000138731842380FA00850793F7F70F639345
:103D8000D70081472300F700EFF0BFA00545FA40B8
:103D90006A44DA444A49BA492A4A9A4A0A4BF65BC3
:103DA000665CD65C465DB65D0D6182809385010DD3
:103DB00035BD83A50B0093778A00CCD8E38807F044
:103DC0008854EF60705E11B7138A010D8144930B24
:103DD0000000D14D3C18A69783AC0700032D4A0183
:103DE000110AE6856A85EF60305CAA855E85EF7012
:103DF000E004FC00A697AA8BEA8566853EC6EF70B4
:103E0000E003B247910488C3E396B4FDB7C700004E
:103E100083A5879B5E85EF601048635AA0009307D7
:103E2000C003B307F90213070000A297D1B5B7C7C3
:103E3000000083A5C79B5E85EF60504E635C050064
:103E40009307C003B307F90237C700000327879A17
:103E5000A29779BDE800EFF07F84EC0013058CBBDE
:103E6000EFF0BF8BB7C400002A8C03A5049ADE854F
:103E7000EF60D07CB7C7000083A58796EF60D05273
:103E8000EF30902F83258B052A8A6285EF60D05111
:103E9000D285EF6070512A8B03A5049AD285EF601A
:103EA000F079AA855A85EF60300E93050000AA8448
:103EB000EF60D04663540500930400009307C003ED
:103EC000B307F902A297C4D72DB5CE854E85B1BDF3
:103ED00083A681349387010D1387813494C354439F
:103EE000D4C3144794C75447184BD4C798CB828087
:103EF00003C7018483C72184138537026374F700E5
:103F00001385F7FF198D1375F50F8280411106C6D1
:103F1000EF20C05703C72184B240A380E184410150
:103F20006FF03F87411122C406C62A8403050400AE
:103F300009E5B2402244410182801375F50F050462
:103F4000EF106062E5B7411106C622C426C293078E
:103F5000300663F1A702A9473374F5023355F50221
:103F600013040403A947B374F5023355F50293848F
:103F7000040331A0A54701448144E3E5A7FE1305EE
:103F800005031375F50FEF10005E81C42685EF1051
:103F9000805D01C822852244B240924441016F10E5
:103FA000805CB2402244924441018280797126D2E1
:103FB000AE849305000022D406D64AD04ECE52CC11
:103FC0002A84EF60B035635905001305D002EF1065
:103FD0008059B70700803D8CB7C7000003AA8795BA
:103FE0002689854963EC290793D714007957B3874D
:103FF000E702A69793F7F70F89CBB7C7000083A511
:10400000479B2285EF60503A2A84B7C7000083A5FA
:10401000879622850144EF608040EF70601E29473B
:1040200039E5B30781001307000363619406631C3D
:1040300094001808930714003A9413070003230808
:10404000E4FE13F4F70F3309810021E8B250225443
:1040500092540259F249624A456182802285D28592
:10406000EF60903479192A841379F90FA5BF1C08E1
:10407000930614003E94B377E50293870703230861
:10408000F4FE3355E50213F4F60F59BF05042380FF
:10409000E7001374F40F850749BF631694001305F6
:1040A000E002EF10404C0345F9FF7D141374F40F48
:1040B000EF10604B7D1951BFB727002083C787BF22
:1040C0008D45858B81CFB7C7000083A5079C411123
:1040D00006C6EF60702DB240914541016FF01FEDB3
:1040E000B727002083C787BF8145858B81CFB7C79E
:1040F000000083A5079C411106C6EF60F02AB2407C
:10410000854541016FF09FEA37270020030787BFED
:10411000B7270020239607A0634507002147239671
:10412000E7A019C503D7C7A0134787002396E7A0C8
:104130008280011185451305000406CEEFD02FAB18
:104140008D473EC437250140930780043EC64C008E
:10415000A147130505802312F100EFC05FE8014578
:10416000EFF09FFAF240056182803725014041114E
:104170001305058006C6EFC0BFF2B727002083D71E
:10418000C7A0B24021893385A7403335A000410143
:104190008280411106C6EFF05FFD05C1514693854F
:1041A00081341385413323890132EF70C05583C7B1
:1041B000113393E70704A388F132B24041018280B2
:1041C000411106C6EFF0FF8211C5B2400945410119
:1041D0006F20306EB24041018280011126CA83C433
:1041E000C13522CC4AC806CE4EC693F4F40F99CC02
:1041F00085472685238EF130FD14EF00501693F489
:10420000F40F854763F99702EF30202683C41133FA
:1042100093F4F40F638D042093F7040185CB13848A
:10422000C1318547A300F400F2406244D2444249C0
:10423000B249056182800545EF0030154145EF30F8
:10424000A01F83C71133C18BEDDF7DBF93F714002F
:1042500091C7EF0030740545EF30001E93F7840ED0
:10426000638C071083C7C1319399840193D9894125
:1042700013F7370079EB93F787029DCB1389C13190
:104280008347290093F7070C85E7EF20202003C719
:10429000C13189472302F90093070002631AF7002E
:1042A00063C809008347290093E707F82301F90051
:1042B00083C7C13191E71387C13185462301D700F8
:1042C00013F7040401CF13F7070209EB9386C131FA
:1042D00003C72600136707042381E60013F7840051
:1042E00019C793F7070E81E7C147238EF13093F783
:1042F0000402A1CF1945EF0050099387C13183C74C
:1043000027001387C13193968701E18663C90602AE
:1043100083C6C13113060004639FC60093F687006D
:1043200091C68D9B93E727002301F70093070004B4
:10433000238EF13029A093070008E399F6FE834706
:10434000270093E707022301F70063D3090203C79D
:10435000C1318547631AF7001387C13183472700AE
:1043600093E757002301F700930700F8238EF130FD
:104370001305800EEF30400C93F72400B5C393F77C
:104380008406A1EF03C7C13193070004631FF70040
:104390001387C1318347270093F6070299E693F606
:1043A0000701638B0624238E013083C7C131638EDE
:1043B000072413F7070115C31387C131834627006C
:1043C000858A81CEC1466392D7248347B700638E26
:1043D000072293E78700A305F7000945EF30C005E2
:1043E0009188B1C49387C1310387270083C7C13146
:1043F0009384C13193F7070D6386072483C7340084
:104400006392072463420724EFF05FB083C7440040
:1044100013F7270019C703C7240013671700238168
:10442000E400E59B2382F4001145EF30E00083C4F3
:10443000813193F4F40FCDC4EF30A0079387C131DD
:1044400003C5870013F714009386C131AA8719C3E7
:104450009307400613F7240001C7A90793F7F70F46
:1044600013F7440001C7D91793F7F70F13F7840028
:1044700001C7850793F7F70F13F7040101C7FD176D
:1044800093F7F70F1306800C3E876374F60013074B
:1044900080FC1376F70F2947B2876373E600A947BC
:1044A00083C5960013F604022E8719C2130740062F
:1044B00013F6040419C213072003E204E18463D352
:1044C000040065476314F500630CB7002384F6000D
:1044D000A384E60023860600EFF0CFE0EFF01FA3F1
:1044E00083C4013393F4F40F638A040EEF20B07D8C
:1044F0009387C13103C6A70093F614001387C13117
:10450000B28799C29307400693F6240081C6A90793
:1045100093F7F70F93F6440081C6D91793F7F70F77
:1045200093F6840081C6850793F7F70F93F604018D
:1045300081C6FD1793F7F70F9305800CBE8663F4D1
:10454000F500930680FC93F5F60FA946AE8763F35A
:10455000D500A94793F6F70F630CD60083464700B2
:104560002305F7002306070093E686002302D70001
:1045700093F6040283C7C13199CAC1466399D70033
:104580008346B700639106108946A305D70013F749
:10459000040C29C799C3E18BB1C3B7270020138747
:1045A00007960349870013978401618793890796CB
:1045B0006359070093178901E18763DD070C1379BD
:1045C000F90793F4040491C493770904F9C71379A4
:1045D000F90B4A85EFD04FA82384290183C7C13145
:1045E00093F7C70FE38207C46244F240D2444249C2
:1045F000B24905616F10106D93F64700E38706DA44
:1046000093E787002301F7004DB31389C1312302DB
:104610000900EFF00FBE05C18347290093F7070497
:1046200099EBA147238EF13023010900EF10906927
:10463000EF1030105DB39387C13123810700238EC3
:10464000013061BB635C070023820400EFF0EFB32D
:10465000EF10B05AEFD0CFBFEFF09F8783C7240091
:1046600013F7070201CF93F7F70793E717002381AA
:10467000F40093070004238EF1307DB323810400FE
:10468000238E013055B313F61600E30206F093E6CD
:104690004600E5BD136909082DB71369090415BF64
:1046A00079714ECE06D622D426D24AD052CC56CAE2
:1046B0005AC85EC662C4EFF05FB29387C13183C748
:1046C0002700F9CB1384C131EFF0AFB251EDB7271A
:1046D00000209387079603C9970003C7870083AA22
:1046E000C7003369E900372A002093070AB983C756
:1046F0008706130A0AB9898B89C713050002EF20C0
:10470000B059B7C7000083AB079AB7C7000003AC26
:104710004796B7240020137B0903938404968347AC
:104720002400BDCB0347140025EB13F7170015CB6E
:1047300003C7C1319376070C63850610918B95EB07
:10474000930500000145A3050400EF100074014526
:10475000EFD08F9083472400F59B93E74700230118
:10476000F400EFF09FA765BF0349A501832A8503E5
:104770009DBF930700086310F7042D453921930569
:1047800000000145EF1060700145EFD0EF8CEF1095
:10479000F0038347140089CFB25022549254025937
:1047A000F249624AD24A424BB24B224C4561828066
:1047B000EFF0BFA2F9BF93070004631BF700EF20DF
:1047C000407D19E58347240093F7F7FD2301F400AA
:1047D0008347240013F7870049D703C7940009CF04
:1047E000898B99EB83478A06898BB9C38347440039
:1047F00093E787002302F40083C7840089CF8347AF
:104800002400898B89EB13750904EFD0EF8485456B
:104810005E85EFE0BFDF8347240013F7270031F305
:1048200093E7070109452301F400EF20900815BF25
:10483000D6855A85EF10606585456285EFE01FDDFE
:1048400065BF8347B400ADC313F7270009CF83C703
:104850009400B9C3930500000145EF10006385473C
:10486000A305F400FDBDB18BE38D07EE83C7940073
:1048700089CF2945192E83478A06898B8DC38347A3
:10488000440093E787002302F4008347B400A18B20
:1048900081C70945EF20F001A3050400D9B5D685ED
:1048A0005A85EF10805ED5B783474400A18BE38A19
:1048B00007EAD6855A85EF10405D83474400DD9BAB
:1048C0002302F40079BDB727002083C787BF797121
:1048D0004ECE06D622D426D24AD052CC56CA5AC878
:1048E0005EC662C4A18B89CBEFE02FA611C58547B8
:1048F0001D45238EF130512C83C7C13193F7170822
:10490000A9CB094559248547238EF13081440144C0
:10491000930AF00F138AC131294B1389C10F930BEE
:104920004002354CEF00704763175505EFF05F8983
:10493000EFF01FD783471A00F5D7B2502254925494
:104940000259F249624AD24A424BB24B224C45616B
:104950008280238E0130EF20C06309C983C71133E1
:1049600093E70702A388F132EFF09FD31385C10FBD
:10497000EF20606261BF6304650163178505EFF096
:104980003FD283471A00D5FBCA94238004000588D0
:10499000EFB01FB32D4509E48307090091E70145F6
:1049A000712281440144BDBF639677014A85EF209F
:1049B000E071FDB783C7C131254593F71702EDF3C9
:1049C0004A85EFD0EF89E9BF19C893079002E31B2E
:1049D000F5F493772400B9D71374D40FA1B79307D4
:1049E0000002E3F1A7F49307F002E30DF5F2930759
:1049F0008002630AF5029307B0036308F502930788
:104A0000800563E697021307F5F9A6871377F70F7A
:104A10008504E54693F4F40FCA9763E3E6000115B5
:104A20002380A70001B70944F5BD1144E5BD054445
:104A3000D5BD411122C426C24AC006C61389C13160
:104A4000EFF00FF8A144EFF0BFC58347190081EBE9
:104A5000EFE03FFA6DF983C7C131E38697FEB240BC
:104A60002244924402494101828037C50000130567
:104A700085C06FF02FCB41111305D00506C6EF009E
:104A8000902EB24041016FF05FFE011122CC26CA88
:104A90004AC84EC606CE2A890144914995449317C7
:104AA0002400CA978843EFF02FE163063401130511
:104AB000C002EF00502B0504E31394FEF240624461
:104AC000D2444249B24905618280411122C42A84FC
:104AD0001305400206C6EF0010292285EFF0AFC68D
:104AE0002244B2401305D00341016F00D0270111C9
:104AF00006CE2EC6EFF07FFDB24513F5F50FEFF0B1
:104B00008FC4F24005616FF05FF6011106CE22CC32
:104B100032C62E84EFF07FFB32462285B285EFF05D
:104B2000EFC86244F24005616FF03FF419E537C504
:104B30000000130585BF6FF0EFBE411122C42A8427
:104B400037C50000130505C006C6EFF0AFBD2285CE
:104B5000EFF06FBF2244B24041016FF01FF14111ED
:104B600022C42A8437C500001305059F06C6EFF04E
:104B70006FBB2285EFF02FBDEFF03FEF2244B24034
:104B80001305401F41016FC06FAB411122C42A843D
:104B900037C50000130545A106C6EFF0AFB81305F1
:104BA000F4FF1375F50FA94763EFA700B16793876B
:104BB000479C0A053E951C41828737C500001305B6
:104BC000C5A1EFF02FB62244B24041016FF0BFEA19
:104BD00037C50000130505A3EDB737C50000130561
:104BE00045A4C5B737C50000130585A5D9BF37C58E
:104BF0000000130505A6F1B737C500001305C5A6CB
:104C0000C9B737C50000130585A765BF37C50000C4
:104C1000130585A87DB737C50000130505A955B74D
:104C200037C50000130545AA69BF37C50000130545
:104C300085AB41BF37C50000130545B36FF08FAE9C
:104C400037C50000130545AE6FF0CFAD397156D2B0
:104C5000B72A002006DE22DC5ECE13840AB962CCBD
:104C600066CA6AC826DA4AD84ED652D45AD06EC618
:104C7000834504050145938A0AB9EFF05FE7834550
:104C800064050545A94BEFF09FE6835524050945CA
:104C9000B70C0080EFF0BFE5835544050D45054D89
:104CA000EFF0FFE483458406114589818589EFF0A3
:104CB0001FE483458406154599818589EFF03FE31C
:104CC000830584061945FD81EFF07FE28345740575
:104CD0002945EFF0DFE12C4C0D462D45EFF0FFE2CA
:104CE0006C4C0D463145EFF05FE283458406354557
:104CF0008589EFF0DFDF83458406514595818589FD
:104D0000EFF0FFDE8345840655458D818589EFF000
:104D10001FDE83458406594591818589EFF03FDD8B
:104D20008355A4065D45EFF09FDC6C540D4661454C
:104D3000EFF0BFDD2C580D466545EFF01FDD8355C4
:104D400044076945EFF0BFDA2C5C0D466D45EFF086
:104D5000DFDB2C5001467945EFF03FDB6C5001461C
:104D60007D45EFF09FDA8345840613050002014478
:104D700085818589EFF0BFD7B7C7000003AC07B3C3
:104D8000330A740356898144894D154B130A4A0628
:104D9000137AFA0FB3099A0093F9F90F630BB4056C
:104DA0008D476300F4060D466302A40583250900C0
:104DB00085044E8593F4F40FEFF03FD51109E39B82
:104DC00064FD05041374F40F9147E31BF4FAF250E9
:104DD0006254D2544259B259225A925A025BF24B4F
:104DE000624CD24C424DB24D2161828083254901F3
:104DF000C1B703258902E285EF5010190D46AA8537
:104E000045BF8325C9030D46B3C5950155B737C5C1
:104E100000007971130505B706D6EFF0AF909385C2
:104E200041336800EF20801F6800EFF01FC61305B4
:104E3000A003EF00407303C51132EFF0CF90EFF005
:104E40009FC3B25045618280397122DC26DA4AD88C
:104E50004ED652D456D25AD006DE014437C900008D
:104E6000994937CA00009D4A37CB0000A1446C0025
:104E70002285EF00702C15E537C50000130505C02D
:104E8000EFF04F8A1D45EFF00F8CEFF01FBEF25090
:104E90006254D2544259B259225A925A025B216149
:104EA0008280130549B5EFF0EF87630B3401630A85
:104EB0005407130564031375F50FEFF0CF8829A08D
:104EC00013058AB5EFF00F861305A003EF00A06964
:104ED000050468001374F40FEFF03FBBEFF0BFB9A7
:104EE000E31794F837C50000130505B6EFF08F837C
:104EF000372500201305459AEFF03FB9EFF0BFB713
:104F000037C50000130585B6EFF0CF81B727002025
:104F100003A5879BEFF04F9AEFF0FFB5EFF03FEF5F
:104F2000BDB71305CBB579BF37C5000041111305D7
:104F300045AC22C406C626C237240020EFE09FFEFF
:104F4000034504969307B00863FEA70037C5000029
:104F50001305C5ACEFE01FFD034504961305650777
:104F60001375F50FB7C40000EFE0FFFD138504AD26
:104F700013040496EFE01FFB03456400130565036B
:104F80001375F50FEFE03FFC138504ADEFE09FF9DB
:104F90000345440045051375F50FEFE0DFFA13856F
:104FA00004ADEFE03FF88347240055451D8D137590
:104FB000F50FEFE05FF9138504ADEFE0BFF60345B1
:104FC00034001305A5051375F50FEFE0DFF7138522
:104FD00004ADEFE03FF5834714001305E005B7C4C7
:104FE00000001D8D1375F50FEFE0FFF5834774008A
:104FF000372400201304049695C7138544ADEFE0D1
:105000007FF2034574008D47630BF500F947630594
:10501000F50089476318F500EFE0FFF221A01305C2
:1050200000039123138544ADEFE0DFEF8347940045
:105030004147638AE700130700026386E70899E7A0
:105040001305500319A013053003312B8347840047
:10505000B5CFE207E18763D90700138544ADEFE0E0
:105060007FEC1305700301238347840093F7070443
:1050700081CB138544ADEFE0FFEA13058003E52102
:1050800037C50000130585ADEFE0DFE903454401B6
:10509000EFE07FEB37C500001305C5ADEFE09FE8FB
:1050A0000848EFF0EF8337C50000130505AEEFE0C9
:1050B0007FE748448145EFE07FEF2244B2409244CD
:1050C00041016FF05F9B1305400341B7138544AD69
:1050D000EFE05FE5130590035DB7011122CC2A8450
:1050E00037C50000130545BF06CE2EC6EFE09FE38F
:1050F0002285EFE05FE51305D003B521B2452E858B
:10510000EFE05FE26244F24005616FF01F9601112B
:1051100022CC2A841305E00306CE2EC6A9212285BF
:10512000EFE05FE01305A0033D29B2456244F24081
:105130002E8505616FF09F9F411122C42A8437C5D7
:1051400000001305859F06C6EFE0DFDD2285EFE056
:105150007FDDEFF05F9237C500001305C5A0EFE0DB
:105160007FDC1305600501211305D004ED2E130526
:10517000C002D52E13053002EFE0FFDC1305C0029C
:10518000DD261305E00FEFE01FDC2244B2404101B1
:105190006FF07F8E5971514693858134480086D6D1
:1051A000A6D2A2D4CAD0CECED2CCD6CADAC8DEC657
:1051B000E2C4E6C2EF6020554C002808EF101066EC
:1051C0001305C0034D2683C7C13121476384E71E01
:1051D0006361F7180547638EE71E6386071C09475E
:1051E000638EE71E11476381E71EB72700201387F0
:1051F00007B983497705138B07B993F91900638EB3
:1052000009209387C13183C7D7006388072037C53A
:105210000000130585BBEFE0FFD02808EFF0FF8604
:1052200083477B05898B8DC337C50000130585BC7B
:10523000EFE05FCFEFE0DFCBEFE0FFD01305C00280
:105240001D261126EFE03FD037C50000130505BD30
:10525000EFE05FCDEF103027EFE09FE81305C002CD
:1052600019269387C131884B8145EFE03FD4EFD0B9
:10527000DF8D2A89EF105049AA89EFE01FEFB3674D
:105280003901C98F93F7F70F2A8A1384C131D1C32B
:1052900037C50000130585BDEFE0DFC863050A00D0
:1052A00013050005C924630109049377190081C718
:1052B000130580054D2C9377290081C713059005B0
:1052C0005D249377490081C71305A005692C937766
:1052D000890081C713051004792413790901630536
:1052E00009001305200441246385090293F719007E
:1052F00081C713052005852C93F7290081C7130565
:105300008004952493F9490063850900130530054D
:10531000992C8347D40063860716FD17A306F40073
:105320008347C40063880718FD172306F40013059C
:10533000E003152CEFF06FF3B6502654965406593F
:10534000F649664AD64A464BB64B264C964C6561A2
:105350008280130700026384E7066369F70241470E
:10536000E395E7E81384C1318307240063C9070488
:1053700037C50000130545B8EFE0DFBA83472400C6
:10538000858BC9CB13050003F92A85B513070004E3
:10539000638BE70413070008E399E7E437C50000CF
:1053A000130505BB29A037C50000130585B7EFE03D
:1053B0007FB725BD37C50000130505B8CDBF37C57C
:1053C00000001305C5B8E5B737C50000130505B9DA
:1053D000F9BF37C50000130585B9D1BF37C5000037
:1053E000130505BAE9B737C50000130585BAEFE024
:1053F0007FB39387C13183C727001305300313F7A9
:10540000870059F313F747001305200335DF93F79F
:105410000702ADDB1305100385BF37240020930777
:10542000049603AC870513040496930AC102130A79
:1054300081010149894C954B6C400858EF40307E02
:1054400023A0AA0063169901E285EF40507D2ADA75
:10545000639A090003250A0083A50A00EF50101E75
:105460002320AA0005091379F90F1104910A110AE2
:10547000E31479FDE39D09D837C50000130505BC89
:1054800059BB83C7C131754793F7C70791E32547D8
:105490008347C400A306E40081E785472306F400A0
:1054A00037C50000130505BEEFE0DFA76810EFF079
:1054B000CFDDBDB583C7C1314D4793F7C70791E332
:1054C000254737C50000130585BE2306E400EFE03D
:1054D0007FA503458400EFE01FA71305C0026120EC
:1054E00003459400EFE03FA61305C002AD28034535
:1054F000A400EFE05FA5EF00A075AA84EFC06FAA3B
:10550000B3E7A40093F7F70F2A84E38207E237C5D5
:105510000000130505BFEFE0FFA089C8854713050C
:1055200030056384F40013053004352893771400A4
:1055300081C71305600405280988E30A04DE130502
:10554000D0041520EDB383C7518403C7418493F77A
:10555000F70F1385E7FF6374F7001385F7FF198DC5
:105560001375F50F8280411122C43744004026C2D2
:105570004AC006C6AA8413090440930500044A855C
:10558000EFC02F9D7DD9130504402244B24002494B
:10559000A685924441016FC08F9A9387518483C737
:1055A000070003C641841305F00F93F7F70F9386A6
:1055B00051846303F60237270020130707A93E979B
:1055C00085070345070093F7F70F1307E00F639371
:1055D000E70081472380F6008280411122C63744CC
:1055E00000409305505213050440EFC04F9731CD52
:1055F00013050440EFC04F959377F50F1307100282
:10560000638DE7046367F7026147638EE702620513
:105610006185635B050A9387C70793F7F70F7547A3
:105620006365F70231678A071307C7C0BA979C43BF
:1056300082871307F003638EE7001307E007E39800
:10564000E7FC094501A8EFD0FFE1324441017300B6
:1056500020300545EF10F025CDBF2145E5BF1305EE
:105660000002CDBF83C7C13193F70702F9DF1305ED
:105670000004CDB70545EF109060C1BF0945E5BFF7
:105680001145D5BF2145C5BF4145F5B713050002FA
:10569000DDB713050004C5B713050008E9BF0545CC
:1056A000EF10905F5DB70945E5BF1145D5BF2145B6
:1056B000C5BF4145F5B713050002DDB7130500046A
:1056C000C5B713050008E9BF03C641849305E00F81
:1056D00093864184130716001377F70F6313B700FF
:1056E000014783C55184E302B7F6B72500209385AF
:1056F00005A92E962300F6002380E600B9B703C75C
:105700004184A382E1848280011106CE2AC62EC480
:10571000EFF02FB232459307B005A2453305F502ED
:10572000F2401306A0050561130505306FC00FA7F1
:10573000AA851306A0051305003C6FC02FA6011112
:1057400006CE2AC62EC4EFF0CFAE3245D547A245CD
:105750003305F502F24051460561130505206FC07F
:10576000EFA34111A945014506C6EFC02FA2B240E3
:10577000B72500201306C007938505B905454101EB
:105780006FC0CFA1797122D406D626D24AD09377A2
:1057900015002A84DDCF37270020930707B99946E3
:1057A0002388D704FD462395D706B7C6000083A6F5
:1057B000469B23990704F4D7B7C6000083A68695B5
:1057C000B4DB9306A00F239AD706B7C6000083A6C2
:1057D00086D0B4DFFD46F4CBB7C6000083A6C69AD8
:1057E000B4CFB7C6000083A6C6D0F4CFB7C60000BA
:1057F00083A606D1B4D393060000F4D393064004E5
:105800002384D706B7C6000083A546D12328B7B89E
:1058100037C70000032687D137C700008326C7D1CA
:1058200037C70000032707D2CCC38CC7D0CB90CF9B
:10583000D0CF94D7D4D794DBD8DFB8C3F8C3CCC7C4
:1058400090D3D4DBB8C78CCBD0D394DFF8C7EFF0BC
:105850005FF1937724008DC302C602C802CA02CC4E
:1058600002CE81442149268585046C0093F4F40F0F
:10587000EFF0FFECE39924FF937744008DC7814557
:1058800013050030EFC08F90814513051030EFC035
:10589000EF8F81451305B035EFC04F8F814513055C
:1058A000C035EFC0AF8E218819C881451305003C73
:1058B000EFC0CF8D81451305103CEFC02F8DB25046
:1058C00022549254025945618280411122C42E848F
:1058D0009305B005B305B50226C21306A005AA8438
:1058E000228506C693850530EFC04F8F09ED2685CA
:1058F00023000400A285EFF03FE10145B2402244BD
:105900009244410182800545D5BF41111306A0058F
:105910009305003C22C406C62A84EFC02F8C19E9E7
:10592000228523000400EFF0BFE00145B24022448D
:10593000410182800545DDBF411122C42E84D54539
:10594000B305B50226C25146AA84228506C69385B0
:105950000520EFC0AF8815E19307000026851CC025
:105960005CC01CC45CC41CC8A285EFF05FDD0145AF
:10597000B24022449244410182800545D5BF411185
:10598000014506C6EFB09FFF29478147631DE5002B
:10599000372500201306C0078545130505B9EFC05C
:1059A000EF83B337A000B2403E85410182804111B0
:1059B00026C2AE8422C4930500002A84268506C62A
:1059C0004AC0EF50A015634E05249307300663FAD2
:1059D00087081305C4F91375F50F81471147A546CC
:1059E0006366A706B72600200947938606B9638534
:1059F000E7020D476384E70405476389E7000A056A
:105A0000369504C1EFF0FFD50145A5A21105131786
:105A10002500369744C3FDB737C90000832549D216
:105A200021059317250026853384F600EF50C01713
:105A3000832549D2EF50401708C4E9B731050A055C
:105A4000B70700803695BD8C44C56DBF850793F7B9
:105A5000F70F63FAA61C6388E71C59151375F50F39
:105A600041B72685EF10106EEF50A07F130700029C
:105A70009377F50F6369871A31650A04130545C8E2
:105A80002A9418400287094719456374F70E37278F
:105A900000202300F7BEBDB7372700202303F7BE41
:105AA00095B7372700202311F7BEEF00900C99BF60
:105AB000372700202312F7BECDBFB72600209386DC
:105AC00006B903C7860691C7136747002384E60615
:105AD00015BF6D9BE5BFB7260020938606B903C7A7
